{
  "transactions": [
    {
      "hash": "0xb489d86f0fae0771589ce712408f049beeadd45c1e4e7b5990c26b66d24c58ed",
      "transactionType": "CALL",
      "contractName": null,
      "contractAddress": "0x11588fad5beedd2d1f8ef6d46f40f058a84e6624",
      "function": "mint(address,uint256)",
      "arguments": [
        "0x66f4bAeda936548126A1BA330b03Aa9e9F2B287a",
        "500000000"
      ],
      "transaction": {
        "from": "0x66f4baeda936548126a1ba330b03aa9e9f2b287a",
        "to": "0x11588fad5beedd2d1f8ef6d46f40f058a84e6624",
        "gas": "0x16220",
        "value": "0x0",
        "input": "0x40c10f1900000000000000000000000066f4baeda936548126a1ba330b03aa9e9f2b287a000000000000000000000000000000000000000000000000000000001dcd6500",
        "nonce": "0x2",
        "chainId": "0x66eee"
      },
      "additionalContracts": [],
      "isFixedGasLimit": false
    },
    {
      "hash": "0x8f3ccaf779e2f31201436cbd0b5e957d0deaa22399e98b1c266c85a98b7ce437",
      "transactionType": "CALL",
      "contractName": null,
      "contractAddress": "0x11588fad5beedd2d1f8ef6d46f40f058a84e6624",
      "function": "approve(address,uint256)",
      "arguments": [
        "0x6065Cf6A0aEac381FD7aa642BB4B19E11bF3e051",
        "500000000"
      ],
      "transaction": {
        "from": "0x66f4baeda936548126a1ba330b03aa9e9f2b287a",
        "to": "0x11588fad5beedd2d1f8ef6d46f40f058a84e6624",
        "gas": "0xeef6",
        "value": "0x0",
        "input": "0x095ea7b30000000000000000000000006065cf6a0aeac381fd7aa642bb4b19e11bf3e051000000000000000000000000000000000000000000000000000000001dcd6500",
        "nonce": "0x3",
        "chainId": "0x66eee"
      },
      "additionalContracts": [],
      "isFixedGasLimit": false
    },
    {
      "hash": "0xdb03db17ab6827ae49de11a7a7e313374bf8ad84e28cfb22e19744d0ef68bc47",
      "transactionType": "CALL",
      "contractName": null,
      "contractAddress": "0x6065cf6a0aeac381fd7aa642bb4b19e11bf3e051",
      "function": "topUpRewards(uint256)",
      "arguments": [
        "500000000"
      ],
      "transaction": {
        "from": "0x66f4baeda936548126a1ba330b03aa9e9f2b287a",
        "to": "0x6065cf6a0aeac381fd7aa642bb4b19e11bf3e051",
        "gas": "0x1b5ab",
        "value": "0x0",
        "input": "0xbc58d795000000000000000000000000000000000000000000000000000000001dcd6500",
        "nonce": "0x4",
        "chainId": "0x66eee"
      },
      "additionalContracts": [],
      "isFixedGasLimit": false
    },
    {
      "hash": "0xb153f365e3e4718a132222fccb7b48ed15eefb806fd3930f9fb90efe4c64bd37",
      "transactionType": "CALL",
      "contractName": null,
      "contractAddress": "0x6065cf6a0aeac381fd7aa642bb4b19e11bf3e051",
      "function": "setAllowed(address,bool)",
      "arguments": [
        "0x70997970C51812dc3A010C7d01b50e0d17dc79C8",
        "true"
      ],
      "transaction": {
        "from": "0x66f4baeda936548126a1ba330b03aa9e9f2b287a",
        "to": "0x6065cf6a0aeac381fd7aa642bb4b19e11bf3e051",
        "gas": "0xec88",
        "value": "0x0",
        "input": "0x4697f05d00000000000000000000000070997970c51812dc3a010c7d01b50e0d17dc79c80000000000000000000000000000000000000000000000000000000000000001",
        "nonce": "0x5",
        "chainId": "0x66eee"
      },
      "additionalContracts": [],
      "isFixedGasLimit": false
    },
    {
      "hash": "0x23ddf38796cd5e24753328ee6f2b7ff9d6f39caf29f5bfa669e808bab83c8325",
      "transactionType": "CALL",
      "contractName": null,
      "contractAddress": "0x11588fad5beedd2d1f8ef6d46f40f058a84e6624",
      "function": "mint(address,uint256)",
      "arguments": [
        "0x70997970C51812dc3A010C7d01b50e0d17dc79C8",
        "100000000"
      ],
      "transaction": {
        "from": "0x66f4baeda936548126a1ba330b03aa9e9f2b287a",
        "to": "0x11588fad5beedd2d1f8ef6d46f40f058a84e6624",
        "gas": "0x16220",
        "value": "0x0",
        "input": "0x40c10f1900000000000000000000000070997970c51812dc3a010c7d01b50e0d17dc79c80000000000000000000000000000000000000000000000000000000005f5e100",
        "nonce": "0x6",
        "chainId": "0x66eee"
      },
      "additionalContracts": [],
      "isFixedGasLimit": false
    }
  ],
  "receipts": [
    {
      "status": "0x1",
      "cumulativeGasUsed": "0x10d10",
      "logs": [
        {
          "address": "0x11588fad5beedd2d1f8ef6d46f40f058a84e6624",
          "topics": [
            "0xddf252ad1be2c89b69c2b068fc378daa952ba7f163c4a11628f55a4df523b3ef",
            "0x0000000000000000000000000000000000000000000000000000000000000000",
            "0x00000000000000000000000066f4baeda936548126a1ba330b03aa9e9f2b287a"
          ],
          "data": "0x000000000000000000000000000000000000000000000000000000001dcd6500",
          "blockHash": "0xd7ba4d02d29845ef268668f8db51f5d35ce2be26a5b62a8781db26d3cf6d84f1",
          "blockNumber": "0xef1948a",
          "blockTimestamp": "0x69b86ba9",
          "transactionHash": "0xb489d86f0fae0771589ce712408f049beeadd45c1e4e7b5990c26b66d24c58ed",
          "transactionIndex": "0x1",
          "logIndex": "0x0",
          "removed": false
        }
      ],
      "logsBloom": "0x00000000000000000000000000000000000000000000000000000000000000000000000000000000000000000000000000040000000000040000000000000000000000000000000000000008008000000000000000000000000000000000000000000000020000000000000000000800000000000000000000080010000000000000000000000000000000000000000000000000000000000000000000000000000000000000000000000000000000001000000000000000000000000000000000000002000000000000000000000000000000000200000000000000000020000000000000000000000000000000000000000000000000000000000000000000",
      "type": "0x2",
      "transactionHash": "0xb489d86f0fae0771589ce712408f049beeadd45c1e4e7b5990c26b66d24c58ed",
      "transactionIndex": "0x1",
      "blockHash": "0xd7ba4d02d29845ef268668f8db51f5d35ce2be26a5b62a8781db26d3cf6d84f1",
      "blockNumber": "0xef1948a",
      "gasUsed": "0x10d10",
      "effectiveGasPrice": "0x1313ca0",
      "from": "0x66f4baeda936548126a1ba330b03aa9e9f2b287a",
      "to": "0x11588fad5beedd2d1f8ef6d46f40f058a84e6624",
      "contractAddress": null,
      "gasUsedForL1": "0x0",
      "l1BlockNumber": "0x9f9a65",
      "timeboosted": false
    },
    {
      "status": "0x1",
      "cumulativeGasUsed": "0xb652",
      "logs": [
        {
          "address": "0x11588fad5beedd2d1f8ef6d46f40f058a84e6624",
          "topics": [
            "0x8c5be1e5ebec7d5bd14f71427d1e84f3dd0314c0f7b2291e5b200ac8c7c3b925",
            "0x00000000000000000000000066f4baeda936548126a1ba330b03aa9e9f2b287a",
            "0x0000000000000000000000006065cf6a0aeac381fd7aa642bb4b19e11bf3e051"
          ],
          "data": "0x000000000000000000000000000000000000000000000000000000001dcd6500",
          "blockHash": "0xbd81a3013045d63b585840bb5574f27dd55d05e92c59de2f7a766afdeaf1e165",
          "blockNumber": "0xef19490",
          "blockTimestamp": "0x69b86bab",
          "transactionHash": "0x8f3ccaf779e2f31201436cbd0b5e957d0deaa22399e98b1c266c85a98b7ce437",
          "transactionIndex": "0x1",
          "logIndex": "0x0",
          "removed": false
        }
      ],
      "logsBloom": "0x00000000000000000000000000000000000000000000000000000000000000000000000000000000000000000000000000040000000000040000000000200000000000000000000000000000008000000000000000000000000000000000000240000000000000000000000000000000000000000000000000080000000000000000000000000000000000000000000000000000000000000000000000000000020000000040000000000000000000001000000000000000000000000000000000000000000000000000000000000000000000000200000000000000000000000010000000000000000000000000000000000000000000000000000000000000",
      "type": "0x2",
      "transactionHash": "0x8f3ccaf779e2f31201436cbd0b5e957d0deaa22399e98b1c266c85a98b7ce437",
      "transactionIndex": "0x1",
      "blockHash": "0xbd81a3013045d63b585840bb5574f27dd55d05e92c59de2f7a766afdeaf1e165",
      "blockNumber": "0xef19490",
      "gasUsed": "0xb652",
      "effectiveGasPrice": "0x1315410",
      "from": "0x66f4baeda936548126a1ba330b03aa9e9f2b287a",
      "to": "0x11588fad5beedd2d1f8ef6d46f40f058a84e6624",
      "contractAddress": null,
      "gasUsedForL1": "0x0",
      "l1BlockNumber": "0x9f9a65",
      "timeboosted": false
    },
    {
      "status": "0x1",
      "cumulativeGasUsed": "0x12b43",
      "logs": [
        {
          "address": "0x11588fad5beedd2d1f8ef6d46f40f058a84e6624",
          "topics": [
            "0xddf252ad1be2c89b69c2b068fc378daa952ba7f163c4a11628f55a4df523b3ef",
            "0x00000000000000000000000066f4baeda936548126a1ba330b03aa9e9f2b287a",
            "0x0000000000000000000000006065cf6a0aeac381fd7aa642bb4b19e11bf3e051"
          ],
          "data": "0x000000000000000000000000000000000000000000000000000000001dcd6500",
          "blockHash": "0x3330eb37f59115eb6bf1afc76d7b9b4c62377aa9476d19993660162d16590ccf",
          "blockNumber": "0xef1949a",
          "blockTimestamp": "0x69b86bae",
          "transactionHash": "0xdb03db17ab6827ae49de11a7a7e313374bf8ad84e28cfb22e19744d0ef68bc47",
          "transactionIndex": "0x1",
          "logIndex": "0x0",
          "removed": false
        },
        {
          "address": "0x6065cf6a0aeac381fd7aa642bb4b19e11bf3e051",
          "topics": [
            "0xf7fc0c5ccb5205f2e1367e2f915cc4562c0504cdf32a81ed53fbca65e107e712",
            "0x00000000000000000000000066f4baeda936548126a1ba330b03aa9e9f2b287a"
          ],
          "data": "0x000000000000000000000000000000000000000000000000000000001dcd6500000000000000000000000000000000000000000000000000000000001dcd6500",
          "blockHash": "0x3330eb37f59115eb6bf1afc76d7b9b4c62377aa9476d19993660162d16590ccf",
          "blockNumber": "0xef1949a",
          "blockTimestamp": "0x69b86bae",
          "transactionHash": "0xdb03db17ab6827ae49de11a7a7e313374bf8ad84e28cfb22e19744d0ef68bc47",
          "transactionIndex": "0x1",
          "logIndex": "0x1",
          "removed": false
        }
      ],
      "logsBloom": "0x00000000800000002000000000001000000000000000000000000000000000000000000000000000000000000000000000040000000000040000000000000000000000000000000000000008008000000000000000000000000000000000000240000000000000000000000000000000000000000000000000080010000000000000000000000000000000000000000000000000000000000000000000000000080000000040000000000000000000001080000000000000000000000000000000000002000000000000000000000000000000000200000000000000000000000000000000000000000000000000000000000000000000000100000000000000",
      "type": "0x2",
      "transactionHash": "0xdb03db17ab6827ae49de11a7a7e313374bf8ad84e28cfb22e19744d0ef68bc47",
      "transactionIndex": "0x1",
      "blockHash": "0x3330eb37f59115eb6bf1afc76d7b9b4c62377aa9476d19993660162d16590ccf",
      "blockNumber": "0xef1949a",
      "gasUsed": "0x12b43",
      "effectiveGasPrice": "0x1312d00",
      "from": "0x66f4baeda936548126a1ba330b03aa9e9f2b287a",
      "to": "0x6065cf6a0aeac381fd7aa642bb4b19e11bf3e051",
      "contractAddress": null,
      "gasUsedForL1": "0x0",
      "l1BlockNumber": "0x9f9a65",
      "timeboosted": false
    },
    {
      "status": "0x1",
      "cumulativeGasUsed": "0xb475",
      "logs": [
        {
          "address": "0x6065cf6a0aeac381fd7aa642bb4b19e11bf3e051",
          "topics": [
            "0xc5217903bd71390e046be1c1ee589f3af533c8fe5b67ee0a7dade2f8a853badd",
            "0x00000000000000000000000070997970c51812dc3a010c7d01b50e0d17dc79c8"
          ],
          "data": "0x0000000000000000000000000000000000000000000000000000000000000001",
          "blockHash": "0xab50fa687c3dacb5f1f9fa6c21045aee992dc5655b7ca9ff872425a07848600c",
          "blockNumber": "0xef194a1",
          "blockTimestamp": "0x69b86bb0",
          "transactionHash": "0xb153f365e3e4718a132222fccb7b48ed15eefb806fd3930f9fb90efe4c64bd37",
          "transactionIndex": "0x1",
          "logIndex": "0x0",
          "removed": false
        }
      ],
      "logsBloom": "0x00000000800000002002000000000000000000000000100000000000000000000000000000000000000000000000000000000000000000000000000000000000000000200000000000000000000000000000000000000000000000000000000000000800000000000000000000000000000000000000000000000000040000000000000000000000000000000000000000000000000000000000000000000000000000000000000000000000000000000080000000000000000000000000000000000000000000000000000000000000000000000000000000000000000000000000000000000000000000000000000001000000000000000000000000000000",
      "type": "0x2",
      "transactionHash": "0xb153f365e3e4718a132222fccb7b48ed15eefb806fd3930f9fb90efe4c64bd37",
      "transactionIndex": "0x1",
      "blockHash": "0xab50fa687c3dacb5f1f9fa6c21045aee992dc5655b7ca9ff872425a07848600c",
      "blockNumber": "0xef194a1",
      "gasUsed": "0xb475",
      "effectiveGasPrice": "0x1312d00",
      "from": "0x66f4baeda936548126a1ba330b03aa9e9f2b287a",
      "to": "0x6065cf6a0aeac381fd7aa642bb4b19e11bf3e051",
      "contractAddress": null,
      "gasUsedForL1": "0x0",
      "l1BlockNumber": "0x9f9a65",
      "timeboosted": false
    },
    {
      "status": "0x1",
      "cumulativeGasUsed": "0xca44",
      "logs": [
        {
          "address": "0x11588fad5beedd2d1f8ef6d46f40f058a84e6624",
          "topics": [
            "0xddf252ad1be2c89b69c2b068fc378daa952ba7f163c4a11628f55a4df523b3ef",
            "0x0000000000000000000000000000000000000000000000000000000000000000",
            "0x00000000000000000000000070997970c51812dc3a010c7d01b50e0d17dc79c8"
          ],
          "data": "0x0000000000000000000000000000000000000000000000000000000005f5e100",
          "blockHash": "0x39205930ac5b4b16ca749837e813349dbed23d84c8acd857ad458f13d442bec5",
          "blockNumber": "0xef194ac",
          "blockTimestamp": "0x69b86bb3",
          "transactionHash": "0x23ddf38796cd5e24753328ee6f2b7ff9d6f39caf29f5bfa669e808bab83c8325",
          "transactionIndex": "0x1",
          "logIndex": "0x0",
          "removed": false
        }
      ],
      "logsBloom": "0x00000000000000000002000000000000000000000000000000000000000000000000000000000000000000000000000000000000000000040000000000000000000000000000000000000008000000000000000000000000000000000000000000000800020000000000000000000800000000000000000000080010000000000000000000000000000000000000000000000000000000000000000000000000000000000000000000000000000000000000000000000000000000000000000000000002000000000000000000000000000000000200000000000000000020000000000000000000000000000000000001000000000000000000000000000000",
      "type": "0x2",
      "transactionHash": "0x23ddf38796cd5e24753328ee6f2b7ff9d6f39caf29f5bfa669e808bab83c8325",
      "transactionIndex": "0x1",
      "blockHash": "0x39205930ac5b4b16ca749837e813349dbed23d84c8acd857ad458f13d442bec5",
      "blockNumber": "0xef194ac",
      "gasUsed": "0xca44",
      "effectiveGasPrice": "0x13163b0",
      "from": "0x66f4baeda936548126a1ba330b03aa9e9f2b287a",
      "to": "0x11588fad5beedd2d1f8ef6d46f40f058a84e6624",
      "contractAddress": null,
      "gasUsedForL1": "0x0",
      "l1BlockNumber": "0x9f9a65",
      "timeboosted": false
    }
  ],
  "libraries": [],
  "pending": [],
  "returns": {},
  "timestamp": 1773693877437,
  "chain": 421614,
  "commit": "cf5bd17"
}